S01B00002E2F44656275672F666C6970666C6F705F6972712E7331395F
S315200000000248854600F088F8FEE7C04600C0012079
S3152000001080B500AF0A4B1B781A00082313400BD07B
S31520000020084B1B780133DAB2064B1A70064B1A6856
S31520000030054B08210A431A60C046BD4680BDC0460E
S3152000004004ED00E038010020143C014080B500AFEB
S31520000050224B02221A70224B18221A6035488047FA
S31520000060204B1A681F4B8021C9010A431A601E4B78
S315200000701E4A1A601E4B1F4A1A801F4B1A681E4BB7
S315200000801E490A401A601C4B1A681B4B8021C90165
S315200000900A431A601A4B1A68194B08210A431A6038
S315200000A0184B1A68174B08210A431A60164B1A6810
S315200000B0154B08218A431A600B4B0C4A1A60134BC6
S315200000C0134A1A60134B1B8812498022920013434D
S315200000D09BB20B80C046BD4680BDC046380100207D
S315200000E0303802404438024008ED00E000C00120CC
S315200000F0000C02405555000008380140FF0FFFFF55
S31520000100003C0140083C01400C3C014064C00120F9
S315200001101100002000E100E080B500AFFFF796FF58
S31520000120024A034B1B781370FAE7C046140C0240B0
S3112000013038010020090200080000000031
S70520000000DA
