S01B00002E2F44656275672F666C6970666C6F705F6972712E7331395F
S315200000000248854600F072F8FEE7C04600C001208F
S3152000001080B500AF094B1B781A00082313400AD07D
S31520000020074B1B685A1C064B1A60064B1A68054B71
S3152000003008210A431A60C046BD4680BD04ED00E093
S3152000004018010020143C014080B500AF1A4B002255
S315200000501A601A4B1A4A1A801A4B1A68194B1A49EF
S315200000600A401A60174B1A68164B8021C9010A43A9
S315200000701A60164B1A68154B08210A431A60144B4E
S315200000801A68134B08210A431A60124B1A68114B3F
S3152000009008218A431A60104B104A1A60104B114AE5
S315200000A01A60114B1B8810498022920013439BB281
S315200000B00B80C046BD4680BD18010020000C0240C2
S315200000C05555000008380140FF0FFFFF003C014056
S315200000D0083C01400C3C014008ED00E000C0012036
S315200000E064C001201100002000E100E080B582B04C
S315200000F000AF00237B60FFF7A7FF044B1B787B60D4
S31520000100034B1A68034BD2B21A70F6E7101002405E
S3112000011018010020140C02400000000022
S70520000000DA
