S01300002E2F44656275672F706F6E672E733139BA
S315200000000248854600F064FEFEE7C04600C0012097
S3152000001080B586B000AF0200FB1D1A701723FB18AF
S3152000002000221A703AE01723FB181B7804330122AA
S315200000309A401F4B1B68D2B21A7000233B6102E024
S315200000403B6901333B613B691A4A9342F8DD1A4BFF
S315200000501B681A780F203B180F210A401A703B188C
S315200000601A78FB1D1B78013B1A411300012213400D
S315200000700AD01723FB181A78FB1D1B78013B0F4962
S3152000008092008A18D35C0FE0094B1B6800221A7075
S3152000009017217B181A787B1801321A701723FB1840
S315200000A01B78032BBFD9FF231800BD4606B080BDA1
S315200000B0100E00200F270000140E002040100020F4
S315200000C080B500AF0C4B00221A600C4B2A221A6016
S315200000D00B4B00221A60084B05221A60C046064BBD
S315200000E01A6880235B021340F9D0034B00221A6062
S315200000F0C046BD4680BDC04610E000E014E000E0EA
S3152000010018E000E080B500AFFFF7DAFFFFF7D8FF71
S31520000110C046BD4680BD80B584B000AF78607B68A0
S315200001209B00BB600123FB6004E0FFF7C9FFFB686F
S315200001300133FB60FA68BB689A42F6DDC046BD46CD
S3152000014004B080BD80B584B000AF7860FA239B00F0
S31520000150BB600123FB6006E07B681800FFF7DBFF2E
S31520000160FB680133FB60FA68BB689A42F4DDC0463F
S31520000170BD4604B080BD80B582B000AF0200FB1D35
S315200001801A70064B1A780549FB1D1B781343DBB200
S315200001900B70C046BD4602B080BDC046141002405A
S315200001A080B582B000AF0200FB1D1A70084B1B7889
S315200001B05BB2FA1D127852B2D24352B213405AB2EF
S315200001C0034BD2B21A70C046BD4602B080BDC046AF
S315200001D01410024080B582B000AF0200FB1D1A70D9
S315200001E0FB1D1B78082B0CD002DC002B05D01AE057
S315200001F0102B0DD0182B12D015E01820FFF7D0FFAA
S3152000020011E00820FFF7B7FF1020FFF7C9FF0AE02B
S315200002100820FFF7C5FF1020FFF7ADFF03E01820E9
S31520000220FFF7A9FFC046C046BD4602B080BD80B5D7
S3152000023082B000AF4020FFF7B3FF144B144A1A6078
S315200002400120FFF7ADFF0220FFF795FFFFF75AFFCA
S315200002504020FFF790FFFFF755FF0E4B1A78FB1D46
S315200002607F218A431A704020FFF79AFFFFF74AFF43
S31520000270FB1D1B78002BEBD14020FFF77CFF034BA7
S31520000280054A1A60C046BD4602B080BD0010024035
S3152000029055550000111002405555555580B584B06E
S315200002A000AF0200FB1D1A704020FFF779FF1B4BA1
S315200002B01B4A1A600320FFF75EFFFB1D1B78180000
S315200002C0FFF788FFFFF71EFF4020FFF754FFFFF7D9
S315200002D019FF144A0F23FB1812781A704020FFF7D3
S315200002E05FFF0E4B104A1A60FB1D1B78082B04D1AA
S315200002F00820FFF76FFFFFF79AFFFB1D1B78102BD7
S3152000030004D11020FFF766FFFFF791FF0F23FB189C
S315200003101B781800BD4604B080BDC04600100240C0
S3152000032055550000111002405555555580B582B0DF
S3152000033000AF0200FB1D1A70BB1D0A1C1A701A4A58
S31520000340FB1D1B781370BB1D1B781800FFF742FF9F
S31520000350FFF7D8FE4020FFF70EFFFFF7D3FE402021
S31520000360FFF71EFFBB1D1B780822134004D0082070
S31520000370FFF730FFFFF75BFFBB1D1B7810221340F2
S3152000038004D01020FFF726FFFFF751FF064B00226F
S315200003901A704020FFF7EFFE0020FFF71BFFC04634
S315200003A0BD4602B080BDC0461510024080B582B061
S315200003B000AF0200FB1D1A70BB1D0A1C1A704020DC
S315200003C0FFF7EEFEBB1D1B781800FFF703FF032087
S315200003D0FFF7E6FEBB1D1A78FB1D1B7811001800DF
S315200003E0FFF7A4FFC046BD4602B080BD80B582B0EF
S315200003F000AF0200FB1D1A70BB1D0A1C1A7040209C
S31520000400FFF7CEFEBB1D1B781800FFF7E3FE012089
S31520000410FFF7B1FE0220FFF7C3FEBB1D1A78FB1DB6
S315200004201B7811001800FFF781FFC046BD4602B0B9
S3152000043080BD80B582B000AF0200FB1D1A70FB1D87
S315200004401B781800FFF72AFFFB1D1B781800FFF703
S3152000045025FF03001800BD4602B080BD80B500AF61
S315200004600420FFF79DFE0A20FFF755FE4020FFF7E8
S3152000047082FE0A20FFF74FFE7820FFF791FE1E200E
S31520000480FFF760FE2020FFF776FE18213E20FFF7BB
S315200004908DFF18213F20FFF789FF1821C020FFF785
S315200004A085FF18214020FFF781FF1821B820FFF78C
S315200004B07DFF0020FFF78EFEC046BD4680BD80B57D
S315200004C082B000AFFB1D00221A7023E0FB1D1B78B3
S315200004D0482252421343DBB218211800FFF766FF69
S315200004E018214020FFF762FFBB1D00221A7008E08A
S315200004F018210020FFF77AFFBB1D1A78BB1D013299
S315200005001A70BB1D1B783F2BF2D9FB1D1A78FB1DD9
S3152000051001321A70FB1D1B78072BD7D9C046BD4662
S3152000052002B080BDF0B587B000AFF860B9607A60E0
S31520000530FB68802B00D9B8E0FB68002B00D1B4E023
S31520000540BB68402B00D9B0E0BB68002B00D1ACE0E3
S315200005507B68012B00D9A8E0BB68013BDA0814238D
S31520000560FB181A70BB68013B07221340072B2CD8B7
S315200005709A00504BD3181B689F461723FB1801225D
S315200005801A7022E01723FB1802221A701DE0172387
S31520000590FB1804221A7018E01723FB1808221A7079
S315200005A013E01723FB1810221A700EE01723FB18EE
S315200005B020221A7009E01723FB1840221A7004E043
S315200005C01723FB1880221A70C0467B68002B05D1A2
S315200005D01722BB18BA181278D2431A70FB68402B20
S315200005E00AD91623FB1810221A70FB68DAB21523D3
S315200005F0FB18413A1A7009E01623FB1808221A70D4
S31520000600FB68DAB21523FB18013A1A701526BB19B6
S315200006101B7840221343DAB216257B191B78190062
S315200006201000FFF7C3FE1423FB181B784822524202
S315200006301343DAB27B191B7819001000FFF7B6FEB8
S315200006401323FC187B191B781800FFF7F2FE030012
S315200006502370BB191B7840221343DAB27B191B780F
S3152000066019001000FFF7A2FE7B68012B09D1172283
S31520000670BB18B9181322BA18097812780A431A70C7
S3152000068008E01722BB18BA181321791812780978AE
S315200006900A401A701623FB181A781723FB181B78A2
S315200006A011001800FFF7A2FE00E0C046BD4607B0C5
S315200006B0F0BDC0465010002080B584B000AF7860F1
S315200006C00023FB601DE07B68DA687B681968FB689D
S315200006D004335B00CB1804331B78D31818007B68CF
S315200006E01A697B681968FB6804335B00CB180533ED
S315200006F01B78D31801221900FFF714FFFB6801337A
S31520000700FB607B681B681B68FA689A42DBDBC04685
S31520000710BD4604B080BD80B584B000AF78600023AC
S31520000720FB601DE07B68DA687B681968FB68043328
S315200007305B00CB1804331B78D31818007B681A6922
S315200007407B681968FB6804335B00CB1805331B787C
S31520000750D31800221900FFF7E5FEFB680133FB6082
S315200007607B681B681B68FA689A42DBDBC046BD467D
S3152000077004B080BD80B582B000AF78607B68180079
S31520000780FFF7C9FF7B68DA687B685B68D2187B68ED
S31520000790DA607B681A697B689B68D2187B681A6165
S315200007A07B681A69484B1B699A4224DB7B681A6965
S315200007B07B681B689B68D218434B1969424B1B68A0
S315200007C09B68CB189A4216DC7B68DA683E4BD96860
S315200007D03D4B1B685B68CB189A420CDC7B685B68D8
S315200007E05A427B685A60384BDA687B681B685B68BC
S315200007F0D2187B68DA607B68DB68002B09DC7B68B3
S315200008004022DA60314B1B78DBB20133DAB22F4B50
S315200008101A707B68DA687B681B685B68D318802B44
S3152000082009DD7B684022DA60294B1B78DBB2013375
S31520000830DAB2274B1A707B681A69264B1B699A42D3
S3152000084024DB7B681A697B681B689B68D218214B5E
S315200008501969204B1B689B68CB189A4216DC7B686B
S31520000860DA687B681B685B68D2181A4BDB689A4289
S315200008700CDB7B685B685A427B685A60154BDA68EA
S315200008807B681B685B68D21A7B68DA607B681B69A9
S31520000890002B04DC7B689B685A427B689A607B68E5
S315200008A01A697B681B689B68D318402B04DD7B681C
S315200008B09B685A427B689A607B681800FFF7FCFEAB
S315200008C0C046BD4602B080BDE80F00200D0E0020B8
S315200008D00C0E00200C10002080B582B000AF78608E
S315200008E07B681800FFF717FF7B68DA687B685B6810
S315200008F0D2187B68DA607B681A697B689B68D21895
S315200009007B681A617B681B69002B02DC7B680022EE
S315200009109A607B681A697B681B689B68D318402B92
S3152000092002DD7B6800229A607B681800FFF7C4FE10
S315200009307B6800225A607B6800229A60C046BD46CA
S3152000094002B080BD80B584B000AFF860B9607A602F
S31520000950FB68BA685A60FB687A689A60C046BD46EA
S3152000096004B080BD80B582B000AF0200FB1D1A70B6
S31520000970054B1A780449FB1D1B781343DBB20B7019
S31520000980C046BD4602B080BD1410024080B582B07C
S3152000099000AF0200FB1D1A70084B1B785BB2FA1DD4
S315200009A0127852B2D24352B213405AB2034BD2B249
S315200009B01A70C046BD4602B080BDC0461410024023
S315200009C080B582B000AF0200FB1D1A704020FFF7F1
S315200009D0C9FF064AFB1D1B781370FFF771FB4020E9
S315200009E0FFF7D4FFC046BD4602B080BD15100240B9
S315200009F080B582B000AF4020FFF7B4FFFFF760FB61
S31520000A00FFF75EFB064AFB1D12781A704020FFF79F
S31520000A10BDFFFB1D1B781800BD4602B080BDC04639
S31520000A201110024080B582B000AF0200FB1D1A7083
S31520000A300320FFF7ABFFFB1D1B781800FFF7C0FF55
S31520000A40C046BD4602B080BD80B582B000AF020070
S31520000A50FB1D1A700120FFF785FF0220FFF796FF86
S31520000A60FB1D1B781800FFF7ABFFC046BD4602B042
S31520000A7080BD90B583B000AF0B4B00221A800120B9
S31520000A80FFF784FF0220FFF76DFFFC1DFFF7B0FF85
S31520000A9003002370044B054A1A80FB1D1B7818009F
S31520000AA0BD4603B090BDC046021002405555000019
S31520000AB090B583B000AF0A4B00221A800320FFF7BF
S31520000AC051FFFC1DFFF794FF03002370044B054ADA
S31520000AD01A80FB1D1B781800BD4603B090BDC0468A
S31520000AE0021002405555000080B500AF0420FFF7E4
S31520000AF039FFC046FFF7BDFF03001A0080231340CD
S31520000B00802BF7D00820FFF706FB3C20FFF78AFF53
S31520000B102820FFF700FB0E20FFF784FF2820FFF791
S31520000B20FAFA0120FFF77EFF0220FFF70BFB0620D3
S31520000B30FFF778FF2820FFF7EEFAC046BD4680BDB6
S31520000B4080B582B000AF0200FB1D1A70C046FFF7C9
S31520000B5090FF03001A0080231340802BF7D0082033
S31520000B60FFF7D9FAFB1D1B781800FFF76DFF2B2026
S31520000B70FFF7D1FAC046BD4602B080BD80B584B02D
S31520000B8000AF786039607B68DAB20F23FB18013A30
S31520000B901A703B68022B05D10F22BB18BA1812789F
S31520000BA040321A700F23FB181B78802252421343BF
S31520000BB0DBB21800FFF736FFC046BD4604B080BD45
S31520000BC080B582B000AF0420FFF7CCFE00F040F8DD
S31520000BD01B4B7B6006E07B685A1C7A601B781800EA
S31520000BE0FFF7AEFF7B681B78002BF4D1154B1B78E3
S31520000BF0DBB23033DBB21800FFF7A2FF022101205F
S31520000C00FFF7BCFF104B7B6006E07B685A1C7A60BE
S31520000C101B781800FFF794FF7B681B78002BF4D114
S31520000C200A4B1B78DBB23033DBB21800FFF788FFA4
S31520000C300420FFF7ABFEC046BD4602B080BDC046CD
S31520000C40701000200C0E00207C1000200D0E0020BD
S31520000C5080B500AF0120FFF799FE0220FFF796FE30
S31520000C600120FFF7DFFE0220FFF76CFAC046BD46E3
S31520000C7080BD80B500AF0D4B00221A700C4B0022B0
S31520000C801A700C4B18221A605F4880470A4B0B4A91
S31520000C901A600B4B0B4A1A600B4B00221A700B4B37
S31520000CA0AA221A80C046BD4680BDC0460C0E002032
S31520000CB00D0E002030380240001002405555555583
S31520000CC0000C024055550055050C02400E0C024002
S31520000CD090B585B000AF494BFB60494BBB60494B93
S31520000CE07B60FFF7C6FFFFF7FFFE01210120FFF71C
S31520000CF045FFFFF7B3FBFFF7E2FBFFF761FFBB689A
S31520000D00DB69BA68100098477B68DB697A6810004F
S31520000D109847FC1C0120FFF77BF903002370BC1CBD
S31520000D200420FFF775F903002370FB1C1B78012BA9
S31520000D3002D00E2B13D028E0BB681B69002B06DCE3
S31520000D40BB681B6AB8680022002198471DE0BB6873
S31520000D501B6A04225242B8680021984715E0BB68F6
S31520000D601A69BB681B689B68D3183F2B06DDBB68D6
S31520000D701B6AB86800220021984705E0BB681B6AF9
S31520000D80B868042200219847C046BB1C1B780A2B52
S31520000D9002D00D2B13D028E07B681B69002B06DCC4
S31520000DA07B681B6A78680022002198471DE07B68D3
S31520000DB01B6A0422524278680021984715E07B6816
S31520000DC01A697B681B689B68D3183F2B06DD7B68F6
S31520000DD01B6A786800220021984705E07B681B6A19
S31520000DE07868042200219847C046FB68DB69FA68C8
S31520000DF0100098471E20FFF7A5F97EE7C40F0020B4
S31520000E00E80F00200C100020090200080000000056
S31520000E10150C0240110C0240140C02400C0000007C
S31520000E20040000000400000000010002010001018E
S31520000E30010201030200020102020203030103026E
S31520000E40000000000000000000000000000000007C
S31520000E50000000000000000000000000000000006C
S31520000E60000000000000000000000000000000005C
S31520000E70000000000000000000000000000000004C
S31520000E80000000000000000000000000000000003C
S31520000E90000000000000000000000000000000002C
S31520000EA0000000000000000000000000000000001C
S31520000EB0000000000000000000000000000000000C
S31520000EC000000000000000000000000000000000FC
S31520000ED000000000000000000000000000000000EC
S31520000EE000000000000000000000000000000000DC
S31520000EF0280000000200000014000000000001008D
S31520000F0000010101000201020003010300040104A3
S31520000F100005010500060106000701070008010873
S31520000F2000090109000A010A000B010B000C010C43
S31520000F30000D010D000E010E000F010F0010011013
S31520000F40001101110012011200130113000000000C
S31520000F50000000000000000000000000000000006B
S31520000F60000000000000000000000000000000005B
S31520000F70000000000000000000000000000000004B
S31520000F80000000000000000000000000000000003B
S31520000F90000000000000000000000000000000002B
S31520000FA0000000000000000000000000000000001B
S31520000FB0000000000000000000000000000000000B
S31520000FC0000000001C0E00200400000004000000A9
S31520000FD04000000020000000B9060020170700206E
S31520000FE07507002045090020F00E002000000000B3
S31520000FF000000000020000001B000000B9060020CF
S3152000100017070020D908002045090020F00E0020EF
S3152000101000000000000000007E0000001B00000011
S31520001020B906002017070020D9080020450900200E
S315200010303F065B4F666D7D077F6F777C395E7971E2
S315200010400102030A0405060B0708090C0E000F0D02
S315200010507A050020840500208E05002098050020B2
S31520001060A2050020AC050020B6050020C005002002
S31520001070504C4159455220313A200000504C41599C
S30D20001080455220323A200000FF
S70520000000DA
