S01300002E2F44656275672F706F6E672E733139BA
S315200000000248854600F0E6FBFEE7C04600C0012018
S3152000001080B500AF034B18221A6003488047C046BC
S31520000020BD4680BD303802400902000880B584B044
S3152000003000AF78600023FB601DE07B68DA687B6890
S315200000401968FB6804335B00CB1804331B78D3187C
S3152000005018007B681A697B681968FB6804335B00A3
S31520000060CB1805331B78D3180122190000F0CBFAE0
S31520000070FB680133FB607B681B681B68FA689A4241
S31520000080DBDBC046C046BD4604B080BD80B584B02B
S3152000009000AF78600023FB601DE07B68DA687B6830
S315200000A01968FB6804335B00CB1804331B78D3181C
S315200000B018007B681A697B681968FB6804335B0043
S315200000C0CB1805331B78D3180022190000F09BFAB1
S315200000D0FB680133FB607B681B681B68FA689A42E1
S315200000E0DBDBC046C046BD4604B080BD80B582B0CD
S315200000F000AF78607B681800FFF7C8FF7B68DA6876
S315200001007B685B68D2187B68DA607B681A697B68D3
S315200001109B68D2187B681A617B68DB68002B04DC3D
S315200001207B685B685A427B685A607B68DA687B68C2
S315200001301B685B68D318802B04DD7B685B685A429A
S315200001407B685A607B681B69002B04DC7B689B6894
S315200001505A427B689A607B681A697B681B689B6831
S31520000160D318402B04DD7B689B685A427B689A60D3
S315200001707B681800FFF75AFFC046BD4602B080BD17
S3152000018080B584B000AFF860B9607A60FB68BA6861
S315200001905A60FB687A689A60C046BD4604B080BD46
S315200001A080B584B000AF0F23FB1800221A7045E0FB
S315200001B00F23FB181B78043301229A40244BD2B21A
S315200001C01A700023BB6002E0BB680133BB60BB68CA
S315200001D0204A9342F8DD1E4B1A78FB1D0F210A4058
S315200001E01A700E23FB1800221A7019E0FB1D1A78CC
S315200001F00E217B181B781A4113000122134009D0C7
S315200002000F23FB181A787B181B78134992008A183B
S31520000210D35C19E00E217B181A787B1801321A70EC
S315200002200E23FB181B78032BE0D90C4B00221A70E7
S315200002300F217B181A787B1801321A700F23FB18AE
S315200002401B78032BB4D9FF231800BD4604B080BD0C
S31520000250110C02400F270000C8090020150C02408F
S3152000026080B582B000AF0200FB1D1A70054B1A78CC
S315200002700449FB1D1B781343DBB20B70C046BD46F9
S3152000028002B080BD1410024080B582B000AF0200DB
S31520000290FB1D1A70084B1B785BB2FA1D127852B2FE
S315200002A0D24352B213405AB2034BD2B21A70C0464E
S315200002B0BD4602B080BDC0461410024080B582B053
S315200002C000AF0200FB1D1A70FB1D1B78182B1AD0DD
S315200002D01DDC102B10D01ADC002B02D0082B04D0EA
S315200002E015E01820FFF7D0FF12E00820FFF7B8FF2F
S315200002F01020FFF7C9FF0BE00820FFF7C5FF1020ED
S31520000300FFF7AEFF04E01820FFF7AAFF00E0C04683
S31520000310C046BD4602B080BD80B582B000AF402049
S31520000320FFF7B2FF144B154A1A600120FFF7ACFF06
S315200003300220FFF795FF00F0ADFA4020FFF790FF6F
S3152000034000F0A8FA0E4B1A78FB1D7F218A431A70FB
S315200003504020FFF799FF00F09DFAFB1D1B78002B2C
S31520000360EBD14020FFF77CFF034B064A1A60C046BC
S31520000370BD4602B080BDC046001002405555000063
S31520000380111002405555555580B584B000AF020076
S31520000390FB1D1A704020FFF777FF1B4B1B4A1A6084
S315200003A00320FFF75DFFFB1D1B781800FFF786FF74
S315200003B000F070FA4020FFF753FF00F06BFA144A62
S315200003C00F23FB1812781A704020FFF75DFF0E4BA3
S315200003D0104A1A60FB1D1B78082B04D10820FFF752
S315200003E06DFFFFF799FFFB1D1B78102B04D1102002
S315200003F0FFF764FFFFF790FF0F23FB181B78180009
S31520000400BD4604B080BDC0460010024055550000D0
S31520000410111002405555555580B582B000AF0200E7
S31520000420FB1D1A70BB1D0A1C1A701A4AFB1D1B786D
S315200004301370BB1D1B781800FFF740FF00F02AFA47
S315200004404020FFF70DFF00F025FA4020FFF71CFFA4
S31520000450BB1D1B780822134004D00820FFF72EFF6F
S31520000460FFF75AFFBB1D1B781022134004D0102023
S31520000470FFF724FFFFF750FF064B00221A7040209B
S31520000480FFF7EEFE0020FFF719FFC046BD4602B07B
S3152000049080BDC0461510024080B582B000AF020074
S315200004A0FB1D1A70BB1D0A1C1A704020FFF7ECFEBC
S315200004B0BB1D1B781800FFF701FF0320FFF7E4FEA2
S315200004C0BB1D1A78FB1D1B7811001800FFF7A4FF2F
S315200004D0C046BD4602B080BD80B582B000AF0200E6
S315200004E0FB1D1A70BB1D0A1C1A704020FFF7CCFE9C
S315200004F0BB1D1B781800FFF7E1FE0120FFF7B0FEB9
S315200005000220FFF7C1FEBB1D1A78FB1D1B781100C8
S315200005101800FFF781FFC046BD4602B080BD80B5FA
S3152000052082B000AF0200FB1D1A70FB1D1B7818005D
S31520000530FFF72AFFFB1D1B781800FFF725FF030096
S315200005401800BD4602B080BD80B500AF4020FFF741
S3152000055087FE0A2000F0A7F97820FFF795FE1E20D7
S3152000056000F0BEF92020FFF77BFE18213E20FFF782
S3152000057093FF18213F20FFF78FFF1821C020FFF798
S315200005808BFF18214020FFF787FF1821B820FFF79F
S3152000059083FF0020FFF792FEC046BD4680BD80B592
S315200005A082B000AFFB1D00221A7023E0FB1D1B78D2
S315200005B0482252421343DBB218211800FFF76CFF82
S315200005C018214020FFF768FFBB1D00221A7008E0A3
S315200005D018210020FFF780FFBB1D1A78BB1D0132B2
S315200005E01A70BB1D1B783F2BF2D9FB1D1A78FB1DF9
S315200005F001321A70FB1D1B78072BD7D9C046C0467F
S31520000600BD4602B080BDF0B587B000AFF860B960D6
S315200006107A60FB68802B00D9B8E0FB68002B00D1FC
S31520000620B4E0BB68402B00D9B0E0BB68002B00D1FA
S31520000630ACE07B68012B00D9A8E0BB68013BDA0857
S315200006401423FB181A70BB68013B07221340072BA3
S315200006502CD89A004F4BD3181B689F461723FB189C
S3152000066001221A7022E01723FB1802221A701DE0BD
S315200006701723FB1804221A7018E01723FB180822E8
S315200006801A7013E01723FB1810221A700EE0172396
S31520000690FB1820221A7009E01723FB1840221A7033
S315200006A004E01723FB1880221A70C0467B68002BB3
S315200006B005D11722BB18BA181278D2431A70FB68D4
S315200006C0402B0AD91623FB1810221A70FB68DAB2BF
S315200006D01523FB18413A1A7009E01623FB18082245
S315200006E01A70FB68DAB21523FB18013A1A70152620
S315200006F0BB191B7840221343DAB216257B191B78C7
S3152000070019001000FFF7C8FE1423FB181B78482297
S3152000071052421343DAB27B191B7819001000FFF7F7
S31520000720BBFE1323FC187B191B781800FFF7F7FE76
S3152000073003002370BB191B7840221343DAB27B19BE
S315200007401B7819001000FFF7A7FE7B68012B09D143
S3152000075017217B1879181322BA18097812780A43B8
S315200007601A7008E01722BB18BA18132179181278C4
S3152000077009780A401A701623FB181A781723FB18D3
S315200007801B7811001800FFF7A7FE00E0C046BD4603
S3152000079007B0F0BDD809002080B500AF074B084A46
S315200007A01A60084B084A1A60084B00221A70084B38
S315200007B0AA221A80C046BD4680BDC046001002400F
S315200007C055555555000C024055550055050C02400F
S315200007D00E0C024090B585B000AF1A4BFB601A4B49
S315200007E0BB60FFF7D9FFFFF7AFFEFB681B6AF8680F
S315200007F0042204219847FB68DB69FA6810009847B1
S31520000800BB68DB69BA6810009847FC1DFFF7C8FC77
S3152000081003002370FB1D1B78022B02D0082B07D068
S315200008200EE0BB681B6AB86802220021984707E0E1
S31520000830BB681B6A02225242B86800219847C0460C
S31520000840D9E7C0464C090020A409002080B500AF96
S315200008500D4B00221A600D4B29221A600B4B0122E8
S315200008601A600B4B00221A60074B05221A60C046FD
S31520000870054B1A6880235B021340F9D0024B0022F5
S315200008801A60C046BD4680BD10E000E014E000E0DE
S3152000089018E000E080B500AFFFF7D8FFFFF7D6FFDE
S315200008A0C046BD4680BD80B584B000AF78607B6809
S315200008B09B00FB60FB68322B01DD3223FB600123AA
S315200008C0BB6004E0FFF7C2FFBB680133BB60BA68B8
S315200008D0FB689A42F6DDC046C046BD4604B080BDE0
S315200008E080B584B000AF7860FA239B00BB600A23F2
S315200008F0BB600123FB6006E07B681800FFF7D3FF8F
S31520000900FB680133FB60FA68BB689A42F4DDC04697
S31520000910C046BD4604B080BD0C00000004000000A7
S315200009200400000000010002010001010102010390
S31520000930020002010202020303010302000000007A
S315200009400000000000000000000000001809002040
S31520000950000000000000000001000000010000006F
S315200009602D0000208D000020ED00002081010020B8
S3152000097018000000020000000C000000000001002A
S315200009800001010100020102000301030004010429
S3152000099000050105000601060007010700080108F9
S315200009A00009010970090020000000000000000075
S315200009B002000000000000002D0000208D00002015
S315200009C0ED000020810100200102030A0405060B28
S315200009D00708090C0E000F0D5C0600206606002095
S315200009E0700600207A060020840600208E0600204D
S30D200009F098060020A206002053
S70520000000DA
