S01400002E2F44656275672F64656C61792E7331395E
S315200000000248854600F06AF8FEE7C04600C0012097
S3152000001080B500AF0F4B1B6800221A600E4B1B6881
S315200000202A221A600D4B1B6800221A60094B1B6896
S3152000003005221A60C046074B1B681A6880235B029C
S315200000401340F8D0034B1B6800221A60C046BD46F9
S3152000005080BDC04610010020140100201801002098
S3152000006080B584B000AF78607B689B00BB600123BD
S31520000070FB6004E0FFF7CCFFFB680133FB60FA6806
S31520000080BB689A42F6DDC046BD4604B080BD80B549
S3152000009084B000AF7860FA239B00BB600123FB602D
S315200000A006E07B681800FFF7DBFFFB680133FB6087
S315200000B0FA68BB689A42F4DDC046BD4604B080BDEE
S315200000C080B500AF034B1B68034A1A60C046BD4685
S315200000D080BDC0461C0100205555000080B500AFEC
S315200000E0FFF7EEFF094B1B6800221A80FA235B00FC
S315200000F01800FFF7CCFF054B1B68FF221A80FA2356
S315200001005B001800FFF7C3FFECE7C0462001002084
S3152000011010E000E014E000E018E000E000100240EB
S30920000120141002404F
S70520000000DA
