S01400002E2F44656275672F64656C61792E7331395E
S315200000000248854600F07EF8FEE7C04600C0012083
S31520000010B0B500AF144B1B6800221A60134B1B6847
S315200000202A221A60114B1B681A68104B1C682A2159
S31520000030100000F081F8030023600D4B1B6800229E
S315200000401A60094B1B6805221A60C046064B1B68BE
S315200000501A6880235B021340F8D0034B1B680022EA
S315200000601A60C046BD46B0BD2404002028040020E6
S315200000702C04002080B584B000AF78607B689B009C
S31520000080BB60BB680A21180000F0E0F80300BB60E3
S315200000900123FB6004E0FFF7BBFFFB680133FB6035
S315200000A0FA68BB689A42F6DDC046C046BD4604B033
S315200000B080BD80B584B000AF7860FA239B00BB601A
S315200000C00A23BB600123FB6006E07B681800FFF76C
S315200000D0D1FFFB680133FB60FA68BB689A42F4DD06
S315200000E0C046C046BD4604B080BD80B500AF034BB8
S315200000F01B68034A1A60C046BD4680BD30040020F6
S315200001005555000080B500AFFFF7EFFF094B1B6880
S3152000011000221A80FA235B001800FFF7CAFF054B5E
S315200001201B68FF221A80FA235B001800FFF7C1FF25
S31520000130ECE7C04634040020002243088B4274D3E7
S3152000014003098B425FD3030A8B4244D3030B8B42B2
S3152000015028D3030C8B420DD3FF22090212BA030CBB
S315200001608B4202D31212090265D0030B8B4219D39C
S3152000017000E0090AC30B8B4201D3CB03C01A5241BC
S31520000180830B8B4201D38B03C01A5241430B8B4204
S3152000019001D34B03C01A5241030B8B4201D30B03ED
S315200001A0C01A5241C30A8B4201D3CB02C01A524114
S315200001B0830A8B4201D38B02C01A5241430A8B42D7
S315200001C001D34B02C01A5241030A8B4201D30B02C0
S315200001D0C01A5241CDD2C3098B4201D3CB01C01ADA
S315200001E0524183098B4201D38B01C01A52414309E4
S315200001F08B4201D34B01C01A524103098B4201D3D2
S315200002000B01C01A5241C3088B4201D3CB00C01A3E
S31520000210524183088B4201D38B00C01A52414308B6
S315200002208B4201D34B00C01A5241411A00D20146DB
S31520000230524110467047FFE701B5002000F0F0F864
S3152000024002BDC0460029F7D076E7704703460B4328
S315200002507FD4002243088B4274D303098B425FD399
S31520000260030A8B4244D3030B8B4228D3030C8B42C5
S315200002700DD3FF22090212BA030C8B4202D31212AB
S31520000280090265D0030B8B4219D300E0090AC30B80
S315200002908B4201D3CB03C01A5241830B8B4201D32D
S315200002A08B03C01A5241430B8B4201D34B03C01A16
S315200002B05241030B8B4201D30B03C01A5241C30A8E
S315200002C08B4201D3CB02C01A5241830A8B4201D3FF
S315200002D08B02C01A5241430A8B4201D34B02C01AE9
S315200002E05241030A8B4201D30B02C01A5241CDD28E
S315200002F0C3098B4201D3CB01C01A524183098B42D9
S3152000030001D38B01C01A524143098B4201D34B01C1
S31520000310C01A524103098B4201D30B01C01A524124
S31520000320C3088B4201D3CB00C01A524183088B42AB
S3152000033001D38B00C01A524143088B4201D34B0094
S31520000340C01A5241411A00D2014652411046704706
S315200003505DE0CA0F00D04942031000D3404253400B
S3152000036000229C4603098B422DD3030A8B4212D3CB
S31520000370FC22890112BA030A8B420CD389019211FD
S315200003808B4208D3890192118B4204D389013AD03A
S31520000390921100E08909C3098B4201D3CB01C01A0F
S315200003A0524183098B4201D38B01C01A5241430922
S315200003B08B4201D34B01C01A524103098B4201D310
S315200003C00B01C01A5241C3088B4201D3CB00C01A7D
S315200003D0524183088B4201D38B00C01A5241D9D295
S315200003E043088B4201D34B00C01A5241411A00D216
S315200003F00146634652415B10104601D34042002B12
S3152000040000D54942704763465B1000D3404201B590
S31520000410002000F005F802BD0029F8D016E7704745
S315200004207047C04610E000E014E000E018E000E06D
S31520000430001002401410024010E000E000100240BC
S70520000000DA
