S01B00002E2F44656275672F6173636969646973706C61792E73313967
S315200000000248854600F0D0F9FEE7C04600C0012030
S31520000010B0B500AF144B1B6800221A60134B1B6847
S315200000202A221A60114B1B681A68104B1C682A2159
S31520000030100000F0FDF9030023600D4B1B68002221
S315200000401A60094B1B6805221A60C046064B1B68BE
S315200000501A6880235B021340F8D0034B1B680022EA
S315200000601A60C046BD46B0BD2C07002030070020D0
S315200000703407002080B584B000AF78607B689B0091
S31520000080BB60BB680A21180000F05CFA0300BB6065
S315200000900123FB6004E0FFF7BBFFFB680133FB6035
S315200000A0FA68BB689A42F6DDC046C046BD4604B033
S315200000B080BD80B584B000AF7860FA239B00BB601A
S315200000C00A23BB600123FB6006E07B681800FFF76C
S315200000D0D1FFFB680133FB60FA68BB689A42F4DD06
S315200000E0C046C046BD4604B080BD80B584B000AFD2
S315200000F00200FB1D1A700A4B1B681978084B1B68F7
S31520000100FA1D12780A43D2B21A70054B1A680F23C9
S31520000110FB1812781A70C046BD4604B080BDC04692
S315200001201C07002080B582B000AF0200FB1D1A70AC
S31520000130094B1B681B785BB2FA1D127852B2D24368
S3152000014052B213405AB2044B1B68D2B21A70C04640
S31520000150BD4602B080BDC0461C07002080B582B0D7
S3152000016000AF0200FB1D1A704020FFF7BEFF074BB1
S315200001701B68FA1D12781A70FFF74AFF4020FFF716
S31520000180D1FFC046BD4602B080BDC0462407002030
S3152000019080B582B000AF4020FFF7A7FFFFF738FFFA
S315200001A0FFF736FF064B5A68FB1D12781A7040205F
S315200001B0FFF7B8FFFB1D1B781800BD4602B080BDB7
S315200001C02407002080B582B000AF0200FB1D1A7004
S315200001D00320FFF7A7FFFB1D1B781800FFF7BEFFC4
S315200001E0C046BD4602B080BD80B582B000AF0200D9
S315200001F0FB1D1A700120FFF778FF0220FFF792FF00
S31520000200FB1D1B781800FFF7A9FFC046BD4602B0AC
S3152000021080BD90B583B000AF0B4B00221A80012021
S31520000220FFF780FF0220FFF760FFFC1DFFF7B0FFFE
S3152000023003002370044B054A1A80FB1D1B78180007
S31520000240BD4603B090BDC046021002405555000081
S3152000025090B583B000AF0A4B00221A800320FFF727
S3152000026044FFFC1DFFF794FF03002370044B054A4F
S315200002701A80FB1D1B781800BD4603B090BDC046F2
S31520000280021002405555000080B500AF0420FFF74C
S315200002902CFFC046FFF7BDFF03001A008023134042
S315200002A0802BF7D00820FFF7E5FE3C20FFF78AFFDA
S315200002B02820FFF7DFFE0E20FFF784FF2820FFF718
S315200002C0D9FE0120FFF77EFF0220FFF7F2FE06206F
S315200002D0FFF778FF2820FFF7CDFEC046BD4680BD3C
S315200002E080B582B000AF0200FB1D1A70C046FFF732
S315200002F090FF03001A0080231340802BF7D008209C
S31520000300FFF7B8FEFB1D1B781800FFF76DFF2B20AB
S31520000310FFF7B0FEC046BD4602B080BD80B584B0B2
S3152000032000AF786039607B68DAB20F217B18013A1A
S315200003301A703B68022B04D17B187A181278403247
S315200003401A700F23FB181B78802252421343DBB20C
S315200003501800FFF737FFC046BD4604B080BD80B504
S3152000036000AF094B094A5A60074B094A1A60094BE4
S31520000370094A5A60074B094A1A60094B094A1A600A
S31520000380C046BD4680BDC0461C0700201010024056
S3152000039014100240240700201110024015100240BC
S315200003A00010024055555555B0B58AB000AF1424FB
S315200003B03B191D4A23CA23C312881A803B1D1B4A98
S315200003C023CA23C31188198092789A70FFF7C7FF32
S315200003D0FFF75AFF01210120FFF7A0FF3B197B629F
S315200003E006E07B6A5A1C7A621B781800FFF778FFB2
S315200003F07B6A1B78002BF4D102210120FFF78EFFA8
S315200004003B1D7B6206E07B6A5A1C7A621B781800C9
S31520000410FFF766FF7B6A1B78002BF4D1C046C046E7
S31520000420BD460AB0B0BDC0463C0700204C070020A0
S31520000430002243088B4274D303098B425FD3030AFD
S315200004408B4244D3030B8B4228D3030C8B420DD310
S31520000450FF22090212BA030C8B4202D3121209029E
S3152000046065D0030B8B4219D300E0090AC30B8B42DC
S3152000047001D3CB03C01A5241830B8B4201D38B038A
S31520000480C01A5241430B8B4201D34B03C01A52412F
S31520000490030B8B4201D30B03C01A5241C30A8B4272
S315200004A001D3CB02C01A5241830A8B4201D38B025D
S315200004B0C01A5241430A8B4201D34B02C01A524101
S315200004C0030A8B4201D30B02C01A5241CDD2C30973
S315200004D08B4201D3CB01C01A524183098B4201D3EF
S315200004E08B01C01A524143098B4201D34B01C01ADA
S315200004F0524103098B4201D30B01C01A5241C30852
S315200005008B4201D3CB00C01A524183088B4201D3C0
S315200005108B00C01A524143088B4201D34B00C01AAC
S315200005205241411A00D20146524110467047FFE718
S3152000053001B5002000F0F0F802BDC0460029F7D032
S3152000054076E7704703460B437FD4002243088B424D
S3152000055074D303098B425FD3030A8B4244D3030B24
S315200005608B4228D3030C8B420DD3FF22090212BAE9
S31520000570030C8B4202D31212090265D0030B8B4265
S3152000058019D300E0090AC30B8B4201D3CB03C01A4F
S315200005905241830B8B4201D38B03C01A5241430B2A
S315200005A08B4201D34B03C01A5241030B8B4201D31A
S315200005B00B03C01A5241C30A8B4201D3CB02C01A85
S315200005C05241830A8B4201D38B02C01A5241430AFD
S315200005D08B4201D34B02C01A5241030A8B4201D3EC
S315200005E00B02C01A5241CDD2C3098B4201D3CB0193
S315200005F0C01A524183098B4201D38B01C01A524142
S3152000060043098B4201D34B01C01A524103098B4245
S3152000061001D30B01C01A5241C3088B4201D3CB0030
S31520000620C01A524183088B4201D38B00C01A524113
S3152000063043088B4201D34B00C01A5241411A00D2C3
S3152000064001465241104670475DE0CA0F00D049422C
S31520000650031000D34042534000229C4603098B429C
S315200006602DD3030A8B4212D3FC22890112BA030A24
S315200006708B420CD3890192118B4208D389019211A6
S315200006808B4204D389013AD0921100E08909C3092B
S315200006908B4201D3CB01C01A524183098B4201D32D
S315200006A08B01C01A524143098B4201D34B01C01A18
S315200006B0524103098B4201D30B01C01A5241C30890
S315200006C08B4201D3CB00C01A524183088B4201D3FF
S315200006D08B00C01A5241D9D243088B4201D34B001A
S315200006E0C01A5241411A00D20146634652415B105C
S315200006F0104601D34042002B00D54942704763463D
S315200007005B1000D3404201B5002000F005F802BD81
S315200007100029F8D016E770477047C0460000000051
S3152000072000000000000000000000000010E000E0D3
S3152000073014E000E018E000E010E000E0416C6661A3
S315200007406E756D657269736B200000004469737065
S311200007506C6179202D2074657374000004
S70520000000DA
