S01B00002E2F44656275672F6173636969646973706C61792E73313967
S315200000000248854600F0B4F9FEE7C04600C001204C
S3152000001080B500AF0F4B1B6800221A600E4B1B6881
S315200000202A221A600D4B1B6800221A60094B1B6896
S3152000003005221A60C046074B1B681A6880235B029C
S315200000401340F8D0034B1B6800221A60C046BD46F9
S3152000005080BDC04604040020080400200C040020B3
S3152000006080B584B000AF78607B689B00BB600123BD
S31520000070FB6004E0FFF7CCFFFB680133FB60FA6806
S31520000080BB689A42F6DDC046BD4604B080BD80B549
S3152000009084B000AF7860FA239B00BB600123FB602D
S315200000A006E07B681800FFF7DBFFFB680133FB6087
S315200000B0FA68BB689A42F4DDC046BD4604B080BDEE
S315200000C080B582B000AF0200FB1D1A70064B1B687C
S315200000D01978054B1B68FA1D12780A43D2B21A709A
S315200000E0C046BD4602B080BDF403002080B582B074
S315200000F000AF0200FB1D1A70094B1B681B785BB210
S31520000100FA1D127852B2D24352B213405AB2044B5D
S315200001101B68D2B21A70C046BD4602B080BDC0462A
S31520000120F403002080B582B000AF0200FB1D1A70D8
S315200001304020FFF7C5FF074B1B68FA1D12781A707F
S31520000140FFF766FF4020FFF7D1FFC046BD4602B04D
S3152000015080BDC046FC03002080B582B000AF4020A1
S31520000160FFF7AEFFFFF754FFFFF752FF064B5A6823
S31520000170FB1D12781A704020FFF7B8FFFB1D1B7875
S315200001801800BD4602B080BDFC03002080B582B0B9
S3152000019000AF0200FB1D1A700320FFF7A7FFFB1D0F
S315200001A01B781800FFF7BEFFC046BD4602B080BDD3
S315200001B080B582B000AF0200FB1D1A700120FFF748
S315200001C07FFF0220FFF792FFFB1D1B781800FFF729
S315200001D0A9FFC046BD4602B080BD90B583B000AF32
S315200001E00B4B00221A800120FFF780FF0220FFF729
S315200001F067FFFC1DFFF7B0FF03002370044B054A81
S315200002001A80FB1D1B781800BD4603B090BDC04662
S31520000210021002405555000090B583B000AF0A4B3E
S3152000022000221A800320FFF74BFFFC1DFFF794FFE7
S3152000023003002370044B054A1A80FB1D1B78180007
S31520000240BD4603B090BDC046021002405555000081
S3152000025080B500AF0420FFF733FFC046FFF7BDFF90
S3152000026003001A0080231340802BF7D00820FFF7C5
S31520000270F7FE3C20FFF78AFF2820FFF7F1FE0E202D
S31520000280FFF784FF2820FFF7EBFE0120FFF77EFF14
S315200002900220FFF7FCFE0620FFF778FF2820FFF755
S315200002A0DFFEC046BD4680BD80B582B000AF0200ED
S315200002B0FB1D1A70C046FFF790FF03001A0080232B
S315200002C01340802BF7D00820FFF7CAFEFB1D1B78B2
S315200002D01800FFF76DFF2B20FFF7C2FEC046BD4674
S315200002E002B080BD80B584B000AF786039607B688D
S315200002F0DAB20F23FB18013A1A703B68022B05D19C
S315200003000F22BB18BA18127840321A700F23FB1826
S315200003101B78802252421343DBB21800FFF736FFC8
S31520000320C046BD4604B080BD80B500AF084B094A23
S315200003305A60074B084A1A60084B094A5A60074B0D
S31520000340084A1A60084B094A1A60C046BD4680BD55
S31520000350F40300201010024014100240FC03002079
S3152000036011100240151002400010024055555555F7
S31520000370B0B588B000AF14243B191C4A1168196027
S3152000038012791A713B1D1A4A23CA23C31188198070
S3152000039092789A70FFF7C8FFFFF75AFF01210120D4
S315200003A0FFF7A0FF3B19FB6106E0FB695A1CFA61C7
S315200003B01B781800FFF778FFFB691B78002BF4D118
S315200003C002210120FFF78EFF3B1DFB6106E0FB6942
S315200003D05A1CFA611B781800FFF766FFFB691B7829
S315200003E0002BF4D1C046BD4608B0B0BD1004002095
S315200003F0180400200000000000000000000000009B
S315200004000000000010E000E014E000E018E000E04A
S3152000041048656A2000000000446973706C61792089
S30D200004202D20746573740000A1
S70520000000DA
