S01500002E2F44656275672F6B65797061642E733139EE
S315200000000248854600F0A2F8FEE7C04600C001205F
S3152000001080B500AF054B064A1A60064B00221A70BF
S31520000020054BAA221A80C046BD4680BD000C024060
S3152000003055550055050C02400E0C024080B584B083
S3152000004000AF0F23FB1800221A7049E00F23FB187C
S315200000501B78043301229A40264B1B68D2B21A70B1
S315200000600023BB6002E0BB680133BB60BB68224A49
S315200000709342F8DD214B1B681A78FB1D0F210A409D
S315200000801A700E23FB1800221A701AE0FB1D1A782C
S315200000900E23FB181B781A411300012213400AD0A5
S315200000A00F23FB181A780E23FB181B78144992008D
S315200000B08A18D35C1AE00E217B181A787B18013235
S315200000C01A700E23FB181B78032BDFD9094B1B68EC
S315200000D000221A700F217B181A787B1801321A70A9
S315200000E00F23FB181B78032BB0D9FF231800BD461E
S315200000F004B080BD640100200F27000068010020A5
S315200001008001002080B584B000AF0200FB1D1A706C
S31520000110FB1D1B780F2B04D90F23FB1800221A7006
S3152000012006E0FB1D1A780F23FB1806498A5C1A7015
S31520000130054B1B680F22BA1812781A70C046BD46A6
S3152000014004B080BD700100206C01002080B500AF96
S31520000150FFF75EFFFFF772FF03001800FFF7D2FFDD
S31520000160F8E7C046150C0240110C0240140C024060
S315200001703F065B4F666D7D077F6F777C395E7971B1
S315200001800102030A0405060B0708090C0E000F0DD1
S70520000000DA
