S01500002E2F44656275672F6B65797061642E733139EE
S315200000000248854600F096F8FEE7C04600C001206B
S3152000001080B500AF0A4B1968094BFF2212040A402B
S315200000201A60074B1A68064B06490A431A60064BA4
S3152000003000221A70054BAA221A80C046BD4680BDF2
S31520000040000C024055550055050C02400E0C02408E
S3152000005080B582B000AFFB1D00221A7037E0FB1D71
S315200000601B78043301229A401D4B1B68D2B21A70AA
S315200000701C4B1B681A787B1D0F210A401A70BB1D6A
S3152000008000221A7016E07B1D1A78BB1D1B781A41B8
S3152000009013000122134008D0FB1D1A78BB1D1B78C4
S315200000A0114992008A18D35C16E0BB1D1A78BB1D35
S315200000B001321A70BB1D1B78032BE4D9084B1B6831
S315200000C000221A70FB1D1A78FB1D01321A70FB1DC7
S315200000D01B78032BC3D9FF231800BD4602B080BD71
S315200000E06C010020700100205C01002080B584B0E6
S315200000F000AF0200FB1D1A70FB1D1B780F2B04D9C5
S315200001000F23FB1800221A7006E0FB1D1A780F2316
S31520000110FB1806498A5C1A70054B1B680F22BA1811
S3152000012012781A70C046BD4604B080BD4C0100202E
S315200001307401002080B500AFFFF76AFFFFF788FF44
S3152000014003001800FFF7D2FFF8E7C0463F065B4FD3
S31520000150666D7D077F6F777C395E79710102030AB0
S315200001600405060B0708090C0E000F0D150C02409E
S30D20000170110C0240140C0240A0
S70520000000DA
