S02400002E2F44656275672F666C6970666C6F705F6972715F766563746F7265642E7331399B
S315200000000248854600F004F9FEE7C04600C00120FC
S3152000001080B500AF0A4B1B781A00102313400CD072
S31520000020042000F041F8074B1B78DB43DAB2054B7E
S315200000301A70054A034B1B781370C046BD4680BD17
S3152000004004ED00E030020020150C024080B500AF20
S31520000050074B1B781A000423134005D0022000F01A
S3152000006023F8044B00221A70C046BD4680BDC04608
S3152000007004ED00E03102002080B500AF084B1B786C
S315200000801A000223134008D0012000F00DF8054B7A
S315200000901B780133DAB2034B1A70C046BD4680BDC9
S315200000A004ED00E03102002080B582B000AF786018
S315200000B0164B1A6801217B6899400B001900134BD7
S315200000C00A431A60124B1B785AB27B685B100433C2
S315200000D0012199400B005BB213435AB20C4BD2B2AA
S315200000E01A700B4B1B785BB27A68521004320121CE
S315200000F091400A0052B2D24352B213405AB2044B34
S31520000100D2B21A70C046BD4602B080BD143C014032
S315200001101410024080B500AF284B00221A70284BDD
S3152000012000221A70274B18221A6040488047264B17
S315200001301A68254B8021C9010A431A60234B244A99
S315200001401A60244B244A1A60244BAA22D2011A6030
S31520000150234B1A68224B120B12031A60204B1A6883
S315200001601F4B20490A431A601F4B1A681E4B072152
S315200001700A431A601D4B1A681C4B07210A431A6052
S315200001801B4B1A681A4B07218A431A600F4B104AD9
S315200001901A60184B184A1A60184B194A1A60194BDC
S315200001A0194A1A60194B1B881849E022520013433A
S315200001B09BB20B80C046BD4680BDC04631020020A2
S315200001C030020020303802404438024008ED00E07A
S315200001D000C00120000C0240555555550010024024
S315200001E00838014044040000003C0140083C01401E
S315200001F00C3C014060C00120110000205CC00120A1
S315200002004D00002058C001207900002000E100E0C8
S3152000021080B500AFFFF77EFF024A034B1B781370B1
S31520000220FAE7C046140C02403102002009020008F9
S3092000023000000000A4
S70520000000DA
