S02400002E2F44656275672F666C6970666C6F705F6972715F766563746F7265642E7331399B
S315200000000248854600F0F0F8FEE7C04600C0012011
S3152000001080B500AF0A4B1B781A00102313400CD072
S31520000020042000F041F8074B1B78DB43DAB2054B7E
S315200000301A70054A034B1B781370C046BD4680BD17
S3152000004004ED00E004020020150C024080B500AF4C
S31520000050074B1B781A000423134005D0022000F01A
S3152000006023F8044B00221A70C046BD4680BDC04608
S3152000007004ED00E00502002080B500AF084B1B7898
S315200000801A000223134008D0012000F00DF8054B7A
S315200000901B780133DAB2034B1A70C046BD4680BDC9
S315200000A004ED00E00502002080B582B000AF786044
S315200000B0164B1A6801217B6899400B001900134BD7
S315200000C00A431A60124B1B785AB27B685B100433C2
S315200000D0012199400B005BB213435AB20C4BD2B2AA
S315200000E01A700B4B1B785BB27A68521004320121CE
S315200000F091400A0052B2D24352B213405AB2044B34
S31520000100D2B21A70C046BD4602B080BD143C014032
S315200001101410024080B500AF204B00221A70204BED
S3152000012000221A701F4B204A1A60204BAA22D201A5
S315200001301A601F4B1A681E4B120B12031A601C4BB7
S315200001401A681B4B1B490A431A601B4B1A681A4B29
S3152000015007210A431A60194B1A68184B07210A43CC
S315200001601A60174B1A68164B07218A431A60154BDB
S31520000170154A1A60154B164A1A60164B164A1A600B
S31520000180164B174A1A60174B1B881649E022520055
S3152000019013439BB20B80C046BD4680BD050200209E
S315200001A004020020000C024055555555001002400F
S315200001B00838014044040000003C0140083C01404E
S315200001C00C3C014008ED00E000C0012060C0012089
S315200001D0110000205CC001204D00002058C00120E5
S315200001E07900002000E100E080B500AFFFF792FF24
S315200001F0024A034B1B781370FAE7C046140C0240E0
S30D200002000502002000000000A9
S70520000000DA
