S01A00002E2F44656275672F7379737469636B5F6972712E733139B2
S315200000000248854600F012F8FEE7C04600C00120EF
S3152000001080B500AF00F062F8024B034A1A80C04652
S31520000020BD4680BD000C02405555000080B500AF8E
S31520000030FFF7EEFF0F4B00221A70FA235B00180021
S3152000004000F06AF80B4BFF221A700B4B1B78002B23
S3152000005000D1FAE7C046074B00221A70FA235B004C
S31520000060180000F059F8044B1B78002B00D1FAE752
S31520000070C046DFE7140C02403801002080B500AFEF
S31520000080074B00221A70074B00221A60064BA92242
S315200000901A60044B07221A60C046BD4680BDC04682
S315200000A03801002010E000E014E000E080B500AF49
S315200000B0084B1B685A1E074B1A60064B1B68002B01
S315200000C002D0FFF7DBFF02E0034B01221A70C04685
S315200000D0BD4680BD3C0100203801002080B500AF20
S315200000E0074B084A1A60084B084A1A60084B002238
S315200000F01A60084B00221A70C046BD4680BDC04615
S3152000010008ED00E000C001203CC00120AD00002029
S315200001103C0100203801002080B582B000AF786015
S315200001207A68044B1A60FFF7A9FFC046BD4602B0A5
S3152000013080BDC0463C0100200000000000000000F9
S70520000000DA
