S01A00002E2F44656275672F7379737469636B5F6972712E733139B2
S315200000000248854600F02AF8FEE7C04600C00120D7
S3152000001080B500AF0B4B18221A60204880470A4B48
S315200000201A68094B8021C9010A431A60074B084AFE
S315200000301A6000F069F8074B074A1A60C046BD46A9
S3152000004080BDC046303802404438024008ED00E00A
S3152000005000C00120000C02405555000080B500AFBD
S31520000060FFF7D6FF0A4B00221A700A4B180000F041
S3152000007069F8074BFF221A70074B1B78002B00D11B
S31520000080FAE7C046024B00221A70C046BD4680BD24
S31520000090140C024040420F006401002009020008AF
S315200000A080B500AF084B00221A70084B00221A6058
S315200000B0074B00221A60074BA7221A60034B072220
S315200000C01A60C046BD4680BD6401002010E000E0F5
S315200000D018E000E014E000E080B500AF084B1B6894
S315200000E05A1E074B1A60064B1B68002B02D0FFF7DF
S315200000F0D7FF02E0034B01221A70C046BD4680BDE1
S31520000100680100206401002080B500AF074B084A33
S315200001101A60084B084A1A60084B00221A60084BDE
S3152000012000221A70C046BD4680BDC04608ED00E0DC
S3152000013000C001203CC00120D90000206801002019
S315200001406401002080B582B000AF78607A68044BE5
S315200001501A60FFF7A5FFC046BD4602B080BDC04667
S31120000160680100200000000000000000E4
S70520000000DA
