S01F00002E2F44656275672F666C6970666C6F705F6972715F61636B2E733139CD
S315200000000248854600F0D4F8FEE7C04600C001202D
S3152000001080B582B000AF304B1B781A0008231340FE
S3152000002055D02E4AFB1D12781A702D4B1A682C4B70
S3152000003008210A431A60FB1D1B780122134013D0A6
S31520000040284B1B78274A10210B43DBB21370254B14
S315200000501B78244A10218B43DBB21370224B1B786A
S315200000600133DAB2204B1A70FB1D1B780222134093
S3152000007010D01C4B1B781B4A20210B43DBB213707C
S31520000080184B1B78174A20218B43DBB21370164B73
S3152000009000221A70FB1D1B780422134017D0114B27
S315200000A01B78104A40210B43DBB213700D4B1B7893
S315200000B00C4A40218B43DBB213700C4B1B78DB437D
S315200000C0DAB20A4B1A700A4A084B1B781370C046DC
S315200000D0BD4602B080BDC04604ED00E010100240CF
S315200000E0143C014014100240D5010020D401002008
S315200000F0150C024080B500AF1E4B0A221A701E4B0B
S3152000010000221A701D4B1E4A1A601E4BAA22D201CB
S315200001101A601D4B1A681C4B1C490A401A601A4B60
S315200001201A68194B8021C9010A431A60184B1A68AC
S31520000130174B08210A431A60164B1A68154B0821DB
S315200001400A431A60144B1A68134B08218A431A6013
S31520000150124B134A1A60134B134A1A60134B1B880F
S3152000016012498022920013439BB20B80C046BD46A3
S3152000017080BDC046D5010020D4010020000C0240DD
S31520000180555555550010024008380140FF0FFFFF16
S31520000190003C0140083C01400C3C014008ED00E0D9
S315200001A000C0012064C001201100002000E100E011
S315200001B080B582B000AFBB1D00221A80FFF79AFFE0
S315200001C0024A034B1B781370FAE7C046140C024010
S30D200001D0D5010020000000000B
S70520000000DA
