S01F00002E2F44656275672F666C6970666C6F705F6972715F61636B2E733139CD
S315200000000248854600F0E2F8FEE7C04600C001201F
S3152000001080B582B000AF2E4B1B781A000823134000
S3152000002051D02C4B1B787B602B4B1A682A4B08210E
S315200000300A431A607B680122134013D0274B1B7892
S31520000040264A10210B43DBB21370244B1B78234A1C
S3152000005010218B43DBB21370214B1B780133DAB2AC
S315200000601F4B1A707B680222134010D01B4B1B7843
S315200000701A4A20210B43DBB21370184B1B78174A00
S3152000008020218B43DBB21370154B00221A707B683C
S315200000900422134017D0114B1B78104A40210B43E2
S315200000A0DBB213700D4B1B780C4A40218B43DBB21D
S315200000B013700C4B1B78DB43DAB20A4B1A700A4AD0
S315200000C0084B1B781370C046BD4602B080BDC046A3
S315200000D004ED00E010100240143C014014100240D0
S315200000E0ED010020EC010020150C024080B500AF88
S315200000F0254B00221A70254B00221A70244B1822F9
S315200001001A6039488047234B1A68224B8021C9013F
S315200001100A431A60204B214A1A60214B214A1A6051
S31520000120214BAA22D2011A60204B1A681F4B204964
S315200001300A401A601D4B1A681C4B8021C9010A43CC
S315200001401A601C4B1A681B4B08210A431A601A4B6B
S315200001501A68194B08210A431A60184B1A68174B5C
S3152000016008218A431A600C4B0C4A1A60144B154A14
S315200001701A60154B1B8814498022920013439BB2A8
S315200001800B80C046BD4680BDED010020EC0100205D
S31520000190303802404438024008ED00E000C001201B
S315200001A0000C0240555555550010024008380140B4
S315200001B0FF0FFFFF003C01400C3C0140083C014082
S315200001C064C001201100002000E100E080B500AFEE
S315200001D0FFF78CFF024A034B1B781370FAE7C046E1
S315200001E0140C0240ED010020090200080000000066
S70520000000DA
