S01700002E2F44656275672F6175746F706F6E672E733139FD
S315200000000248854600F0C6FBFEE7C04600C0012038
S3152000001080B500AF0C4B00221A600C4B2A221A60C6
S315200000200B4B00221A60084B05221A60C046064B6D
S315200000301A6880235B021340F9D0034B00221A6012
S31520000040C046BD4680BDC04610E000E014E000E09A
S3152000005018E000E080B500AFFFF7DAFFFFF7D8FF22
S31520000060C046BD4680BD80B584B000AF78607B6851
S315200000709B00BB600123FB6004E0FFF7C9FFFB6820
S315200000800133FB60FA68BB689A42F6DDC046BD467E
S3152000009004B080BD80B584B000AF7860FA239B00A1
S315200000A0BB600123FB6006E07B681800FFF7DBFFDF
S315200000B0FB680133FB60FA68BB689A42F4DDC046F0
S315200000C0BD4604B080BD80B582B000AF0200FB1DE6
S315200000D01A70064B1A780549FB1D1B781343DBB2B1
S315200000E00B70C046BD4602B080BDC046141002400B
S315200000F080B582B000AF0200FB1D1A70084B1B783A
S315200001005BB2FA1D127852B2D24352B213405AB29F
S31520000110034BD2B21A70C046BD4602B080BDC0465F
S315200001201410024080B582B000AF0200FB1D1A7089
S31520000130FB1D1B78082B0CD002DC002B05D01AE007
S31520000140102B0DD0182B12D015E01820FFF7D0FF5A
S3152000015011E00820FFF7B7FF1020FFF7C9FF0AE0DC
S315200001600820FFF7C5FF1020FFF7ADFF03E018209A
S31520000170FFF7A9FFC046C046BD4602B080BD80B588
S3152000018082B000AF4020FFF7B3FF144B144A1A6029
S315200001900120FFF7ADFF0220FFF795FFFFF75AFF7B
S315200001A04020FFF790FFFFF755FF0E4B1A78FB1DF7
S315200001B07F218A431A704020FFF79AFFFFF74AFFF4
S315200001C0FB1D1B78002BEBD14020FFF77CFF034B58
S315200001D0054A1A60C046BD4602B080BD00100240E6
S315200001E055550000111002405555555580B584B01F
S315200001F000AF0200FB1D1A704020FFF779FF1B4B52
S315200002001B4A1A600320FFF75EFFFB1D1B781800B0
S31520000210FFF788FFFFF71EFF4020FFF754FFFFF789
S3152000022019FF144A0F23FB1812781A704020FFF783
S315200002305FFF0E4B104A1A60FB1D1B78082B04D15A
S315200002400820FFF76FFFFFF79AFFFB1D1B78102B87
S3152000025004D11020FFF766FFFFF791FF0F23FB184D
S315200002601B781800BD4604B080BDC0460010024071
S3152000027055550000111002405555555580B582B090
S3152000028000AF0200FB1D1A70BB1D0A1C1A701A4A09
S31520000290FB1D1B781370BB1D1B781800FFF742FF50
S315200002A0FFF7D8FE4020FFF70EFFFFF7D3FE4020D2
S315200002B0FFF71EFFBB1D1B780822134004D0082021
S315200002C0FFF730FFFFF75BFFBB1D1B7810221340A3
S315200002D004D01020FFF726FFFFF751FF064B002220
S315200002E01A704020FFF7EFFE0020FFF71BFFC046E5
S315200002F0BD4602B080BDC0461510024080B582B012
S3152000030000AF0200FB1D1A70BB1D0A1C1A7040208C
S31520000310FFF7EEFEBB1D1B781800FFF703FF032037
S31520000320FFF7E6FEBB1D1A78FB1D1B78110018008F
S31520000330FFF7A4FFC046BD4602B080BD80B582B09F
S3152000034000AF0200FB1D1A70BB1D0A1C1A7040204C
S31520000350FFF7CEFEBB1D1B781800FFF7E3FE01203A
S31520000360FFF7B1FE0220FFF7C3FEBB1D1A78FB1D67
S315200003701B7811001800FFF781FFC046BD4602B06A
S3152000038080BD80B582B000AF0200FB1D1A70FB1D38
S315200003901B781800FFF72AFFFB1D1B781800FFF7B4
S315200003A025FF03001800BD4602B080BD80B500AF12
S315200003B04020FFF788FE0A20FFF755FE7820FFF73A
S315200003C097FE1E20FFF766FE2020FFF77CFE1821F1
S315200003D03E20FFF793FF18213F20FFF78FFF1821BC
S315200003E0C020FFF78BFF18214020FFF787FF182139
S315200003F0B820FFF783FF0020FFF794FEC046BD46D6
S3152000040080BD80B582B000AFFB1D00221A7023E0AC
S31520000410FB1D1B78482252421343DBB218211800D9
S31520000420FFF76CFF18214020FFF768FFBB1D002255
S315200004301A7008E018210020FFF780FFBB1D1A78EC
S31520000440BB1D01321A70BB1D1B783F2BF2D9FB1D39
S315200004501A78FB1D01321A70FB1D1B78072BD7D982
S31520000460C046BD4602B080BDF0B587B000AFF8608B
S31520000470B9607A60FB68802B00D9B8E0FB68002B56
S3152000048000D1B4E0BB68402B00D9B0E0BB68002B9C
S3152000049000D1ACE07B68012B00D9A8E0BB68013B0A
S315200004A0DA081423FB181A70BB68013B0722134095
S315200004B0072B2CD89A00504BD3181B689F4617231E
S315200004C0FB1801221A7022E01723FB1802221A7049
S315200004D01DE01723FB1804221A7018E01723FB18B7
S315200004E008221A7013E01723FB1810221A700EE048
S315200004F01723FB1820221A7009E01723FB18402225
S315200005001A7004E01723FB1880221A70C0467B68F5
S31520000510002B05D11722BB18BA181278D2431A70AD
S31520000520FB68402B0AD91623FB1810221A70FB6889
S31520000530DAB21523FB18413A1A7009E01623FB1884
S3152000054008221A70FB68DAB21523FB18013A1A70D2
S315200005501526BB191B7840221343DAB216257B19C0
S315200005601B7819001000FFF7C9FE1423FB181B780F
S31520000570482252421343DAB27B191B781900100025
S31520000580FFF7BCFE1323FC187B191B781800FFF716
S31520000590F8FE03002370BB191B7840221343DAB2FE
S315200005A07B191B7819001000FFF7A8FE7B68012B2A
S315200005B009D11722BB18B9181322BA18097812784C
S315200005C00A431A7008E01722BB18BA1813217918A3
S315200005D0127809780A401A701623FB181A781723FE
S315200005E0FB181B7811001800FFF7A8FE00E0C04694
S315200005F0BD4607B0F0BDC0462808002080B584B0AF
S3152000060000AF78600023FB601DE07B68DA687B68BA
S315200006101968FB6804335B00CB1804331B78D318A6
S3152000062018007B681A697B681968FB6804335B00CD
S31520000630CB1805331B78D31801221900FFF714FFB6
S31520000640FB680133FB607B681B681B68FA689A426B
S31520000650DBDBC046BD4604B080BD80B584B000AFAC
S3152000066078600023FB601DE07B68DA687B68196888
S31520000670FB6804335B00CB1804331B78D3181800AF
S315200006807B681A697B681968FB6804335B00CB18A2
S3152000069005331B78D31800221900FFF7E5FEFB6807
S315200006A00133FB607B681B681B68FA689A42DBDBB8
S315200006B0C046BD4604B080BD80B582B000AF78602C
S315200006C07B681800FFF7C9FF7B68DA687B685B6880
S315200006D0D2187B68DA607B681A697B689B68D218B7
S315200006E07B681A617B68DB68002B04DC7B685B68AF
S315200006F05A427B685A607B68DA687B681B685B684D
S31520000700D318802B04DD7B685B685A427B685A606D
S315200007107B681B69002B04DC7B689B685A427B68DC
S315200007209A607B681A697B681B689B68D318402B84
S3152000073004DD7B689B685A427B689A607B68180058
S31520000740FFF75CFFC046BD4602B080BD80B584B0D1
S3152000075000AFF860B9607A60FB68BA685A60FB68D7
S315200007607A689A60C046BD4604B080BD80B500AFA9
S31520000770054B18221A6015488047044B044A1A6014
S31520000780C046BD4680BDC0463038024000100240FB
S315200007905555555580B582B000AF0B4B7B60FFF7A2
S315200007A0E5FFFFF703FEFFF72CFE7B681B6A7868E0
S315200007B00122042198477B68DB697A6810009847F4
S315200007C02820FFF767FCF6E7040800200902000846
S315200007D00C000000040000000400000000010002DC
S315200007E001000101010201030200020102020203CB
S315200007F003010302000000000000000000000000CA
S3152000080000000000D00700200000000000000000CB
S315200008100100000001000000FD0500205B0600200D
S31520000820B90600204D070020BE040020C804002081
S31520000830D2040020DC040020E6040020F00400207E
S30D20000840FA0400200405002043
S70520000000DA
