S01700002E2F44656275672F6175746F706F6E672E733139FD
S315200000000248854600F0D8FBFEE7C04600C0012026
S31520000010B0B500AF104B00221A60104B2A221A608E
S315200000200E4B1B680D4C2A21180000F0DDFB030047
S3152000003023600B4B00221A60074B05221A60C0462C
S31520000040054B1A6880235B021340F9D0024B00222D
S315200000501A60C046BD46B0BD10E000E014E000E0E6
S3152000006018E000E080B500AFFFF7D2FFFFF7D0FF22
S31520000070C046BD4680BD80B584B000AF78607B6841
S315200000809B00FB60FB680A21180000F037FC030088
S31520000090FB60FB68322B01DD3223FB600123BB6052
S315200000A004E0FFF7B5FFBB680133BB60BA68FB68A5
S315200000B09A42F6DDC046C046BD4604B080BD80B536
S315200000C084B000AF7860FA239B00BB600A23BB6034
S315200000D00123FB6006E07B681800FFF7CCFFFB6876
S315200000E00133FB60FA68BB689A42F4DDC046C0461D
S315200000F0BD4604B080BD80B582B000AF0200FB1DB6
S315200001001A70064B1A780549FB1D1B781343DBB280
S315200001100B70C046BD4602B080BDC04614100240DA
S3152000012080B582B000AF0200FB1D1A70084B1B7809
S315200001305BB2FA1D127852B2D24352B213405AB26F
S31520000140034BD2B21A70C046BD4602B080BDC0462F
S315200001501410024080B582B000AF0200FB1D1A7059
S31520000160FB1D1B78182B1AD01DDC102B10D01ADC87
S31520000170002B02D0082B04D015E01820FFF7D0FF63
S3152000018012E00820FFF7B7FF1020FFF7C9FF0BE0AA
S315200001900820FFF7C5FF1020FFF7ADFF04E0182069
S315200001A0FFF7A9FF00E0C046C046BD4602B080BDAD
S315200001B080B500AF4020FFF7B3FF114B114A1A60FC
S315200001C00120FFF7ADFF0220FFF795FFFFF74AFF5B
S315200001D04020FFF790FFFFF745FF4020FFF7A0FFE5
S315200001E0FFF740FF084B1B785BB2002BF0DB40206B
S315200001F0FFF781FF024B054A1A60C046BD4680BD07
S315200002000010024055550000111002405555555515
S3152000021080B584B000AF0200FB1D1A704020FFF7A6
S315200002207FFF1B4B1B4A1A600320FFF764FFFB1D51
S315200002301B781800FFF78EFFFFF714FF4020FFF70B
S315200002405AFFFFF70FFF144A0F23FB1812781A7074
S315200002504020FFF765FF0E4B104A1A60FB1D1B78E6
S31520000260082B04D10820FFF775FFFFF7A1FFFB1D20
S315200002701B78102B04D11020FFF76CFFFFF798FF97
S315200002800F23FB181B781800BD4604B080BDC0465E
S315200002900010024055550000111002405555555585
S315200002A080B582B000AF0200FB1D1A70BB1D0A1C70
S315200002B01A701A4AFB1D1B781370BB1D1B78180079
S315200002C0FFF748FFFFF7CEFE4020FFF714FFFFF7AA
S315200002D0C9FE4020FFF724FFBB1D1B7808221340D0
S315200002E004D00820FFF736FFFFF762FFBB1D1B78FF
S315200002F01022134004D01020FFF72CFFFFF758FFE1
S31520000300064B00221A704020FFF7F5FE0020FFF76B
S3152000031021FFC046BD4602B080BDC0461510024032
S3152000032080B582B000AF0200FB1D1A70BB1D0A1CEF
S315200003301A704020FFF7F4FEBB1D1B781800FFF74C
S3152000034009FF0320FFF7ECFEBB1D1A78FB1D1B7867
S3152000035011001800FFF7A4FFC046BD4602B080BDBD
S3152000036080B582B000AF0200FB1D1A70BB1D0A1CAF
S315200003701A704020FFF7D4FEBB1D1B781800FFF72C
S31520000380E9FE0120FFF7B7FE0220FFF7C9FEBB1DDD
S315200003901A78FB1D1B7811001800FFF781FFC04655
S315200003A0BD4602B080BD80B582B000AF0200FB1D05
S315200003B01A70FB1D1B781800FFF72AFFFB1D1B7800
S315200003C01800FFF725FF03001800BD4602B080BDC8
S315200003D080B500AF0420FFF7A3FE0A20FFF74BFEEF
S315200003E04020FFF788FE0A20FFF745FE7820FFF71A
S315200003F097FE1E20FFF763FE2020FFF77CFE1821C4
S315200004003E20FFF78DFF18213F20FFF789FF182197
S31520000410C020FFF785FF18214020FFF781FF182114
S31520000420B820FFF77DFF0020FFF794FEC046BD46AB
S3152000043080BD80B582B000AFFB1D00221A7023E07C
S31520000440FB1D1B78482252421343DBB218211800A9
S31520000450FFF766FF18214020FFF762FFBB1D002231
S315200004601A7008E018210020FFF77AFFBB1D1A78C2
S31520000470BB1D01321A70BB1D1B783F2BF2D9FB1D09
S315200004801A78FB1D01321A70FB1D1B78072BD7D952
S31520000490C046C046BD4602B080BDF0B587B000AFAD
S315200004A0F860B9607A60FB68802B00D9B8E0FB68F9
S315200004B0002B00D1B4E0BB68402B00D9B0E0BB686C
S315200004C0002B00D1ACE07B68012B00D9A8E0BB68EB
S315200004D0013BDA081423FB181A70BB68013B07227C
S315200004E01340072B2CD89A004F4BD3181B689F46D6
S315200004F01723FB1801221A7022E01723FB18022269
S315200005001A701DE01723FB1804221A7018E017230F
S31520000510FB1808221A7013E01723FB1810221A70F2
S315200005200EE01723FB1820221A7009E01723FB1868
S3152000053040221A7004E01723FB1880221A70C04646
S315200005407B68002B05D11722BB18BA181278D24324
S315200005501A70FB68402B0AD91623FB1810221A7032
S31520000560FB68DAB21523FB18413A1A7009E0162304
S31520000570FB1808221A70FB68DAB21523FB18013A19
S315200005801A701526BB191B7840221343DAB216259A
S315200005907B191B7819001000FFF7C2FE1423FB18E5
S315200005A01B78482252421343DAB27B191B78190072
S315200005B01000FFF7B5FE1323FC187B191B781800D3
S315200005C0FFF7F1FE03002370BB191B78402213436B
S315200005D0DAB27B191B7819001000FFF7A1FE7B68A1
S315200005E0012B09D117217B1879181322BA180978FB
S315200005F012780A431A7008E01722BB18BA1813217A
S315200006007918127809780A401A701623FB181A7876
S315200006101723FB181B7811001800FFF7A1FE00E036
S31520000620C046BD4607B0F0BD2C0B002080B584B077
S3152000063000AF78600023FB601DE07B68DA687B688A
S315200006401968FB6804335B00CB1804331B78D31876
S3152000065018007B681A697B681968FB6804335B009D
S31520000660CB1805331B78D31801221900FFF715FF85
S31520000670FB680133FB607B681B681B68FA689A423B
S31520000680DBDBC046C046BD4604B080BD80B584B025
S3152000069000AF78600023FB601DE07B68DA687B682A
S315200006A01968FB6804335B00CB1804331B78D31816
S315200006B018007B681A697B681968FB6804335B003D
S315200006C0CB1805331B78D31800221900FFF7E5FE57
S315200006D0FB680133FB607B681B681B68FA689A42DB
S315200006E0DBDBC046C046BD4604B080BD80B582B0C7
S315200006F000AF78607B681800FFF7C8FF7B68DA6870
S315200007007B685B68D2187B68DA607B681A697B68CD
S315200007109B68D2187B681A617B68DB68002B04DC37
S315200007207B685B685A427B685A607B68DA687B68BC
S315200007301B685B68D318802B04DD7B685B685A4294
S315200007407B685A607B681B69002B04DC7B689B688E
S315200007505A427B689A607B681A697B681B689B682B
S31520000760D318402B04DD7B689B685A427B689A60CD
S315200007707B681800FFF75AFFC046BD4602B080BD11
S3152000078080B584B000AFF860B9607A60FB68BA685B
S315200007905A60FB687A689A60C046BD4604B080BD40
S315200007A080B500AF024B034A1A60C046BD4680BDE5
S315200007B0001002405555555580B582B000AF094B03
S315200007C07B60FFF7EDFFFFF703FE7B681B6A786807
S315200007D00122042198477B68DB697A6810009847D4
S315200007E0F9E7C046080B0020002243088B4274D349
S315200007F003098B425FD3030A8B4244D3030B8B42FC
S3152000080028D3030C8B420DD3FF22090212BA030C04
S315200008108B4202D31212090265D0030B8B4219D3E5
S3152000082000E0090AC30B8B4201D3CB03C01A524105
S31520000830830B8B4201D38B03C01A5241430B8B424D
S3152000084001D34B03C01A5241030B8B4201D30B0336
S31520000850C01A5241C30A8B4201D3CB02C01A52415D
S31520000860830A8B4201D38B02C01A5241430A8B4220
S3152000087001D34B02C01A5241030A8B4201D30B0209
S31520000880C01A5241CDD2C3098B4201D3CB01C01A23
S31520000890524183098B4201D38B01C01A524143092D
S315200008A08B4201D34B01C01A524103098B4201D31B
S315200008B00B01C01A5241C3088B4201D3CB00C01A88
S315200008C0524183088B4201D38B00C01A5241430800
S315200008D08B4201D34B00C01A5241411A00D2014625
S315200008E0524110467047FFE701B5002000F0F0F8AE
S315200008F002BDC0460029F7D076E7704703460B4372
S315200009007FD4002243088B4274D303098B425FD3E2
S31520000910030A8B4244D3030B8B4228D3030C8B420E
S315200009200DD3FF22090212BA030C8B4202D31212F4
S31520000930090265D0030B8B4219D300E0090AC30BC9
S315200009408B4201D3CB03C01A5241830B8B4201D376
S315200009508B03C01A5241430B8B4201D34B03C01A5F
S315200009605241030B8B4201D30B03C01A5241C30AD7
S315200009708B4201D3CB02C01A5241830A8B4201D348
S315200009808B02C01A5241430A8B4201D34B02C01A32
S315200009905241030A8B4201D30B02C01A5241CDD2D7
S315200009A0C3098B4201D3CB01C01A524183098B4222
S315200009B001D38B01C01A524143098B4201D34B010B
S315200009C0C01A524103098B4201D30B01C01A52416E
S315200009D0C3088B4201D3CB00C01A524183088B42F5
S315200009E001D38B00C01A524143088B4201D34B00DE
S315200009F0C01A5241411A00D2014652411046704750
S31520000A005DE0CA0F00D04942031000D34042534054
S31520000A1000229C4603098B422DD3030A8B4212D314
S31520000A20FC22890112BA030A8B420CD38901921146
S31520000A308B4208D3890192118B4204D389013AD083
S31520000A40921100E08909C3098B4201D3CB01C01A58
S31520000A50524183098B4201D38B01C01A524143096B
S31520000A608B4201D34B01C01A524103098B4201D359
S31520000A700B01C01A5241C3088B4201D3CB00C01AC6
S31520000A80524183088B4201D38B00C01A5241D9D2DE
S31520000A9043088B4201D34B00C01A5241411A00D25F
S31520000AA00146634652415B10104601D34042002B5B
S31520000AB000D54942704763465B1000D3404201B5DA
S31520000AC0002000F005F802BD0029F8D016E770478F
S31520000AD07047C0460C00000004000000040000001F
S31520000AE000010002010001010102010302000201CE
S31520000AF002020203030103020000000000000000BE
S31520000B000000000000000000D40A002000000000C1
S31520000B100000000001000000010000002D0600205A
S31520000B208D060020ED06002081070020F00400201D
S31520000B30FA040020040500200E05002018050020D8
S31120000B40220500202C0500203605002090
S70520000000DA
